:0200000058287E
:0E000600831203132E088A002D0882000800C2
:10001400831603139818102800000A288312330843
:040024009900080037
:100028008316031398169030831298008316871747
:10003800071383128C1E23281A08F0001D280800B5
:10004800831203131A08F100981C2C28181218168A
:060058007108F000080031
:10005E0003208A110A128000840AAD0A0319AE0A1F
:08006E00F003031D2F28080018
:1000760083120313B201300884000008B10031086E
:10008600003A031950283108B3000A20B20A320890
:0C009600300784000008B1004228080078
:0E00A2000030831203138C1A0130F0000800A6
:1000B000533083120313A0007930A1007330A200E3
:1000C0007430A3006530A4006D30A5002030A60078
:1000D0007230A7006530A8006130A9006430AA0022
:1000E0007930AB00AC018316860188011930990084
:1000F000181514208230FC00DD30FD00FD0B7E2839
:10010000FC0B7E2800000000860188012030B00032
:100110003B200D30B3000A200A30B3000A205120E2
:1001200070080319962924207008AF007008B300E6
:100130000A202F08313A031DAE2886140610063017
:10014000FB001330FC00AD30FD00FD0BA528FC0BBF
:10015000A528FB0BA5280000000086012F08303AD7
:10016000031DC328061486100630FB001330FC0064
:10017000AD30FD00FD0BBA28FC0BBA28FB0BBA28EA
:100180000000000086012F08333A031DD828081309
:1001900088170630FB001330FC00AD30FD00FD0B6E
:1001A000CF28FC0BCF28FB0BCF28000000008801D4
:1001B0002F08323A031DED28081788130630FB007C
:1001C0001330FC00AD30FD00FD0BE428FC0BE428EF
:1001D000FB0BE4280000000088012F08353A031DBE
:1001E0000229081288160630FB001330FC00AD30DF
:1001F000FD00FD0BF928FC0BF928FB0BF92800008A
:10020000000088012F08343A031D172908168812A8
:100210000630FB001330FC00AD30FD00FD0B0E2955
:10022000FC0B0E29FB0B0E290000000088012F0893
:10023000373A031D2C29081188150630FB001330AE
:10024000FC00AD30FD00FD0B2329FC0B2329FB0B2B
:1002500023290000000088012F08363A031D412998
:10026000081588110630FB001330FC00AD30FD008E
:10027000FD0B3829FC0B3829FB0B38290000000046
:1002800088012F08393A031D5629081088140630B2
:10029000FB001330FC00AD30FD00FD0B4D29FC0BC5
:1002A0004D29FB0B4D290000000088012F08383A2A
:1002B000031D6B29081488100630FB001330FC0066
:1002C000AD30FD00FD0B6229FC0B6229FB0B62299E
:1002D0000000000088012F08423A031D8029061003
:1002E00006110630FB001330FC00AD30FD00FD0BA5
:1002F0007729FC0B7729FB0B77290000000086018A
:100300002F08413A031D9529061006150630FB00FB
:100310001330FC00AD30FD00FD0B8C29FC0B8C294B
:10032000FB0B8C29000000008601AF018F28972964
:02400E004A2F37
:00000001FF
